{
  "contractName": "MockProxyRegistry",
  "abi": [
    {
      "anonymous": false,
      "inputs": [
        {
          "indexed": true,
          "internalType": "address",
          "name": "previousOwner",
          "type": "address"
        },
        {
          "indexed": true,
          "internalType": "address",
          "name": "newOwner",
          "type": "address"
        }
      ],
      "name": "OwnershipTransferred",
      "type": "event"
    },
    {
      "inputs": [],
      "name": "owner",
      "outputs": [
        {
          "internalType": "address",
          "name": "",
          "type": "address"
        }
      ],
      "stateMutability": "view",
      "type": "function"
    },
    {
      "inputs": [
        {
          "internalType": "address",
          "name": "",
          "type": "address"
        }
      ],
      "name": "proxies",
      "outputs": [
        {
          "internalType": "address",
          "name": "",
          "type": "address"
        }
      ],
      "stateMutability": "view",
      "type": "function"
    },
    {
      "inputs": [],
      "name": "renounceOwnership",
      "outputs": [],
      "stateMutability": "nonpayable",
      "type": "function"
    },
    {
      "inputs": [
        {
          "internalType": "address",
          "name": "newOwner",
          "type": "address"
        }
      ],
      "name": "transferOwnership",
      "outputs": [],
      "stateMutability": "nonpayable",
      "type": "function"
    },
    {
      "inputs": [
        {
          "internalType": "address",
          "name": "_address",
          "type": "address"
        },
        {
          "internalType": "address",
          "name": "_proxyForAddress",
          "type": "address"
        }
      ],
      "name": "setProxy",
      "outputs": [],
      "stateMutability": "nonpayable",
      "type": "function"
    }
  ],
  "bytecode": "0x608060405234801561001057600080fd5b5061001a3361001f565b61006f565b600080546001600160a01b038381166001600160a01b0319831681178455604051919092169283917f8be0079c531659141344cd1fd0a4f28419497f9722a3daafe3b4186f6b6457e09190a35050565b6103558061007e6000396000f3fe608060405234801561001057600080fd5b50600436106100575760003560e01c8063715018a61461005c5780638da5cb5b14610066578063a9d4630c1461008a578063c45527911461009d578063f2fde38b146100c6575b600080fd5b6100646100d9565b005b61006e61011d565b6040516001600160a01b03909116815260200160405180910390f35b610064610098366004610295565b61012c565b61006e6100ab3660046102c8565b6001602052600090815260409020546001600160a01b031681565b6100646100d43660046102c8565b610189565b336100e261011d565b6001600160a01b0316146101115760405162461bcd60e51b8152600401610108906102ea565b60405180910390fd5b61011b6000610229565b565b6000546001600160a01b031690565b3361013561011d565b6001600160a01b03161461015b5760405162461bcd60e51b8152600401610108906102ea565b6001600160a01b03918216600090815260016020526040902080546001600160a01b03191691909216179055565b3361019261011d565b6001600160a01b0316146101b85760405162461bcd60e51b8152600401610108906102ea565b6001600160a01b03811661021d5760405162461bcd60e51b815260206004820152602660248201527f4f776e61626c653a206e6577206f776e657220697320746865207a65726f206160448201526564647265737360d01b6064820152608401610108565b61022681610229565b50565b600080546001600160a01b038381166001600160a01b0319831681178455604051919092169283917f8be0079c531659141344cd1fd0a4f28419497f9722a3daafe3b4186f6b6457e09190a35050565b80356001600160a01b038116811461029057600080fd5b919050565b600080604083850312156102a857600080fd5b6102b183610279565b91506102bf60208401610279565b90509250929050565b6000602082840312156102da57600080fd5b6102e382610279565b9392505050565b6020808252818101527f4f776e61626c653a2063616c6c6572206973206e6f7420746865206f776e657260408201526060019056fea26469706673582212204dd728edfc1ee47c5db6333dc2be34c59a6e2c1965889e6ef72097eb5b470f8664736f6c63430008110033",
  "immutableReferences": {},
  "source": "// SPDX-License-Identifier: MIT\n\npragma solidity ^0.8.0;\n\n\nimport '@openzeppelin/contracts/access/Ownable.sol';\n\n\n/**\n * @dev A simple mock ProxyRegistry for use in local tests with minimal security\n */\ncontract MockProxyRegistry is Ownable {\n  mapping(address => address) public proxies;\n\n\n  /***********************************|\n  |  Public Configuration Functions   |\n  |__________________________________*/\n\n  /**\n   * @notice Allow the owner to set a proxy for testing\n   * @param _address           The address that the proxy will act on behalf of\n   * @param _proxyForAddress  The proxy that will act on behalf of the address\n   */\n  function setProxy(address _address, address _proxyForAddress)\n      external\n      onlyOwner()\n  {\n      proxies[_address] = _proxyForAddress;\n  }\n}\n",
  "sourcePath": "/Users/cameronfaith/Documents/GitHub/nft-collection-pipeline/smart-contract/contracts/test/MockProxyRegistry.sol",
  "compiler": {
    "name": "solc",
    "version": "0.8.17+commit.8df45f5f.Emscripten.clang"
  },
  "schemaVersion": "3.3.4",
  "updatedAt": "2022-10-07T15:15:46.853Z",
  "devdoc": {
    "details": "A simple mock ProxyRegistry for use in local tests with minimal security",
    "kind": "dev",
    "methods": {
      "owner()": {
        "details": "Returns the address of the current owner."
      },
      "renounceOwnership()": {
        "details": "Leaves the contract without owner. It will not be possible to call `onlyOwner` functions anymore. Can only be called by the current owner. NOTE: Renouncing ownership will leave the contract without an owner, thereby removing any functionality that is only available to the owner."
      },
      "setProxy(address,address)": {
        "params": {
          "_address": "The address that the proxy will act on behalf of",
          "_proxyForAddress": "The proxy that will act on behalf of the address"
        }
      },
      "transferOwnership(address)": {
        "details": "Transfers ownership of the contract to a new account (`newOwner`). Can only be called by the current owner."
      }
    },
    "version": 1
  },
  "userdoc": {
    "kind": "user",
    "methods": {
      "setProxy(address,address)": {
        "notice": "Allow the owner to set a proxy for testing"
      }
    },
    "version": 1
  }
}