{
  "contractName": "SquirrelFactory",
  "abi": [
    {
      "inputs": [
        {
          "internalType": "address",
          "name": "_proxyRegistryAddress",
          "type": "address"
        },
        {
          "internalType": "address",
          "name": "_nftAddress",
          "type": "address"
        }
      ],
      "stateMutability": "nonpayable",
      "type": "constructor"
    },
    {
      "anonymous": false,
      "inputs": [
        {
          "indexed": true,
          "internalType": "address",
          "name": "previousOwner",
          "type": "address"
        },
        {
          "indexed": true,
          "internalType": "address",
          "name": "newOwner",
          "type": "address"
        }
      ],
      "name": "OwnershipTransferred",
      "type": "event"
    },
    {
      "anonymous": false,
      "inputs": [
        {
          "indexed": true,
          "internalType": "address",
          "name": "from",
          "type": "address"
        },
        {
          "indexed": true,
          "internalType": "address",
          "name": "to",
          "type": "address"
        },
        {
          "indexed": true,
          "internalType": "uint256",
          "name": "tokenId",
          "type": "uint256"
        }
      ],
      "name": "Transfer",
      "type": "event"
    },
    {
      "inputs": [],
      "name": "baseURI",
      "outputs": [
        {
          "internalType": "string",
          "name": "",
          "type": "string"
        }
      ],
      "stateMutability": "view",
      "type": "function"
    },
    {
      "inputs": [],
      "name": "nftAddress",
      "outputs": [
        {
          "internalType": "address",
          "name": "",
          "type": "address"
        }
      ],
      "stateMutability": "view",
      "type": "function"
    },
    {
      "inputs": [],
      "name": "owner",
      "outputs": [
        {
          "internalType": "address",
          "name": "",
          "type": "address"
        }
      ],
      "stateMutability": "view",
      "type": "function"
    },
    {
      "inputs": [],
      "name": "proxyRegistryAddress",
      "outputs": [
        {
          "internalType": "address",
          "name": "",
          "type": "address"
        }
      ],
      "stateMutability": "view",
      "type": "function"
    },
    {
      "inputs": [],
      "name": "renounceOwnership",
      "outputs": [],
      "stateMutability": "nonpayable",
      "type": "function"
    },
    {
      "inputs": [],
      "name": "name",
      "outputs": [
        {
          "internalType": "string",
          "name": "",
          "type": "string"
        }
      ],
      "stateMutability": "pure",
      "type": "function"
    },
    {
      "inputs": [],
      "name": "symbol",
      "outputs": [
        {
          "internalType": "string",
          "name": "",
          "type": "string"
        }
      ],
      "stateMutability": "pure",
      "type": "function"
    },
    {
      "inputs": [],
      "name": "supportsFactoryInterface",
      "outputs": [
        {
          "internalType": "bool",
          "name": "",
          "type": "bool"
        }
      ],
      "stateMutability": "pure",
      "type": "function"
    },
    {
      "inputs": [],
      "name": "numOptions",
      "outputs": [
        {
          "internalType": "uint256",
          "name": "",
          "type": "uint256"
        }
      ],
      "stateMutability": "view",
      "type": "function"
    },
    {
      "inputs": [
        {
          "internalType": "address",
          "name": "newOwner",
          "type": "address"
        }
      ],
      "name": "transferOwnership",
      "outputs": [],
      "stateMutability": "nonpayable",
      "type": "function"
    },
    {
      "inputs": [
        {
          "internalType": "uint256",
          "name": "_optionId",
          "type": "uint256"
        },
        {
          "internalType": "address",
          "name": "_toAddress",
          "type": "address"
        }
      ],
      "name": "mint",
      "outputs": [],
      "stateMutability": "nonpayable",
      "type": "function"
    },
    {
      "inputs": [
        {
          "internalType": "uint256",
          "name": "_optionId",
          "type": "uint256"
        }
      ],
      "name": "canMint",
      "outputs": [
        {
          "internalType": "bool",
          "name": "",
          "type": "bool"
        }
      ],
      "stateMutability": "view",
      "type": "function"
    },
    {
      "inputs": [
        {
          "internalType": "uint256",
          "name": "_optionId",
          "type": "uint256"
        }
      ],
      "name": "tokenURI",
      "outputs": [
        {
          "internalType": "string",
          "name": "",
          "type": "string"
        }
      ],
      "stateMutability": "view",
      "type": "function"
    },
    {
      "inputs": [
        {
          "internalType": "address",
          "name": "",
          "type": "address"
        },
        {
          "internalType": "address",
          "name": "_to",
          "type": "address"
        },
        {
          "internalType": "uint256",
          "name": "_tokenId",
          "type": "uint256"
        }
      ],
      "name": "transferFrom",
      "outputs": [],
      "stateMutability": "nonpayable",
      "type": "function"
    },
    {
      "inputs": [
        {
          "internalType": "address",
          "name": "_owner",
          "type": "address"
        },
        {
          "internalType": "address",
          "name": "_operator",
          "type": "address"
        }
      ],
      "name": "isApprovedForAll",
      "outputs": [
        {
          "internalType": "bool",
          "name": "",
          "type": "bool"
        }
      ],
      "stateMutability": "view",
      "type": "function"
    },
    {
      "inputs": [
        {
          "internalType": "uint256",
          "name": "",
          "type": "uint256"
        }
      ],
      "name": "ownerOf",
      "outputs": [
        {
          "internalType": "address",
          "name": "_owner",
          "type": "address"
        }
      ],
      "stateMutability": "view",
      "type": "function"
    }
  ],
  "bytecode": "0x60e06040526029608081815290620010cd60a0396003906200002290826200021a565b50604560045560016005556000600655600160075560046008553480156200004957600080fd5b50604051620010f6380380620010f68339810160408190526200006c9162000303565b6200007733620000bd565b600180546001600160a01b038481166001600160a01b03199283161790925560028054848416921691909117905560008054620000b592166200010d565b505062000363565b600080546001600160a01b038381166001600160a01b0319831681178455604051919092169283917f8be0079c531659141344cd1fd0a4f28419497f9722a3daafe3b4186f6b6457e09190a35050565b60005b600554811015620001715780826001600160a01b0316846001600160a01b03167fddf252ad1be2c89b69c2b068fc378daa952ba7f163c4a11628f55a4df523b3ef60405160405180910390a48062000168816200033b565b91505062000110565b505050565b634e487b7160e01b600052604160045260246000fd5b600181811c90821680620001a157607f821691505b602082108103620001c257634e487b7160e01b600052602260045260246000fd5b50919050565b601f8211156200017157600081815260208120601f850160051c81016020861015620001f15750805b601f850160051c820191505b818110156200021257828155600101620001fd565b505050505050565b81516001600160401b0381111562000236576200023662000176565b6200024e816200024784546200018c565b84620001c8565b602080601f8311600181146200028657600084156200026d5750858301515b600019600386901b1c1916600185901b17855562000212565b600085815260208120601f198616915b82811015620002b75788860151825594840194600190910190840162000296565b5085821015620002d65787850151600019600388901b60f8161c191681555b5050505050600190811b01905550565b80516001600160a01b0381168114620002fe57600080fd5b919050565b600080604083850312156200031757600080fd5b6200032283620002e6565b91506200033260208401620002e6565b90509250929050565b6000600182016200035c57634e487b7160e01b600052601160045260246000fd5b5060010190565b610d5a80620003736000396000f3fe608060405234801561001057600080fd5b50600436106100d05760003560e01c806306fdde03146100d557806323b872dd1461011a5780634b97aed91461012f5780635bf8633a146101405780635dd871a3146101605780636352211e146101835780636c0360eb14610196578063715018a61461019e5780638da5cb5b146101a657806394bf804d146101ae57806395d89b41146101c1578063c311c523146101e0578063c87b56dd146101e7578063cd7c0326146101fa578063e985e9c51461020d578063f2fde38b14610220575b600080fd5b60408051808201909152601781527657656c636f6d6520746f20746865204e7574686f75736560481b60208201525b60405161011191906109ac565b60405180910390f35b61012d6101283660046109f4565b610233565b005b600554604051908152602001610111565b600254610153906001600160a01b031681565b6040516101119190610a35565b61017361016e366004610a49565b610242565b6040519015158152602001610111565b610153610191366004610a49565b6102e7565b6101046102f7565b61012d610385565b6101536103c9565b61012d6101bc366004610a62565b6103d8565b60408051808201909152600381526213955560ea1b6020820152610104565b6001610173565b6101046101f5366004610a49565b61059c565b600154610153906001600160a01b031681565b61017361021b366004610a92565b6105d0565b61012d61022e366004610ac0565b6106dd565b61023d81836103d8565b505050565b6000600554821061025557506000919050565b600254604080516318160ddd60e01b815290516001600160a01b039092169160009183916318160ddd916004808201926020929091908290030181865afa1580156102a4573d6000803e3d6000fd5b505050506040513d601f19601f820116820180604052508101906102c89190610ae4565b6004549091506001906102dc908290610b13565b909110949350505050565b60006102f16103c9565b92915050565b6003805461030490610b26565b80601f016020809104026020016040519081016040528092919081815260200182805461033090610b26565b801561037d5780601f106103525761010080835404028352916020019161037d565b820191906000526020600020905b81548152906001019060200180831161036057829003601f168201915b505050505081565b3361038e6103c9565b6001600160a01b0316146103bd5760405162461bcd60e51b81526004016103b490610b60565b60405180910390fd5b6103c7600061072f565b565b6000546001600160a01b031690565b6001546001600160a01b0316338163c45527916103f36103c9565b6040518263ffffffff1660e01b815260040161040f9190610a35565b602060405180830381865afa15801561042c573d6000803e3d6000fd5b505050506040513d601f19601f820116820180604052508101906104509190610b95565b6001600160a01b031614806104745750336104696103c9565b6001600160a01b0316145b61048057610480610bb2565b61048983610242565b61049257600080fd5b6002546006546001600160a01b0390911690840361050d5760405163755edd1760e01b81526001600160a01b0382169063755edd17906104d6908690600401610a35565b600060405180830381600087803b1580156104f057600080fd5b505af1158015610504573d6000803e3d6000fd5b50505050610596565b60075484036105965760005b6008548110156105945760405163755edd1760e01b81526001600160a01b0383169063755edd179061054f908790600401610a35565b600060405180830381600087803b15801561056957600080fd5b505af115801561057d573d6000803e3d6000fd5b50505050808061058c90610bc8565b915050610519565b505b50505050565b606060036105a98361077f565b6040516020016105ba929190610bfd565b6040516020818303038152906040529050919050565b6000826001600160a01b03166105e46103c9565b6001600160a01b031614801561060b5750816001600160a01b0316836001600160a01b0316145b15610618575060016102f1565b6001546001600160a01b039081169084166106316103c9565b6001600160a01b03161480156106c45750826001600160a01b0316816001600160a01b031663c4552791866040518263ffffffff1660e01b81526004016106789190610a35565b602060405180830381865afa158015610695573d6000803e3d6000fd5b505050506040513d601f19601f820116820180604052508101906106b99190610b95565b6001600160a01b0316145b156106d35760019150506102f1565b5060009392505050565b336106e66103c9565b6001600160a01b03161461070c5760405162461bcd60e51b81526004016103b490610b60565b60006107166103c9565b905061072182610888565b61072b8183610928565b5050565b600080546001600160a01b038381166001600160a01b0319831681178455604051919092169283917f8be0079c531659141344cd1fd0a4f28419497f9722a3daafe3b4186f6b6457e09190a35050565b6060816000036107a65750506040805180820190915260018152600360fc1b602082015290565b8160005b81156107d057806107ba81610bc8565b91506107c99050600a83610cbd565b91506107aa565b60008167ffffffffffffffff8111156107eb576107eb610cd1565b6040519080825280601f01601f191660200182016040528015610815576020820181803683370190505b5090505b84156108805761082a600183610b13565b9150610837600a86610ce7565b610842906030610cfb565b60f81b81838151811061085757610857610d0e565b60200101906001600160f81b031916908160001a905350610879600a86610cbd565b9450610819565b949350505050565b336108916103c9565b6001600160a01b0316146108b75760405162461bcd60e51b81526004016103b490610b60565b6001600160a01b03811661091c5760405162461bcd60e51b815260206004820152602660248201527f4f776e61626c653a206e6577206f776e657220697320746865207a65726f206160448201526564647265737360d01b60648201526084016103b4565b6109258161072f565b50565b60005b60055481101561023d5780826001600160a01b0316846001600160a01b03167fddf252ad1be2c89b69c2b068fc378daa952ba7f163c4a11628f55a4df523b3ef60405160405180910390a48061098081610bc8565b91505061092b565b60005b838110156109a357818101518382015260200161098b565b50506000910152565b60208152600082518060208401526109cb816040850160208701610988565b601f01601f19169190910160400192915050565b6001600160a01b038116811461092557600080fd5b600080600060608486031215610a0957600080fd5b8335610a14816109df565b92506020840135610a24816109df565b929592945050506040919091013590565b6001600160a01b0391909116815260200190565b600060208284031215610a5b57600080fd5b5035919050565b60008060408385031215610a7557600080fd5b823591506020830135610a87816109df565b809150509250929050565b60008060408385031215610aa557600080fd5b8235610ab0816109df565b91506020830135610a87816109df565b600060208284031215610ad257600080fd5b8135610add816109df565b9392505050565b600060208284031215610af657600080fd5b5051919050565b634e487b7160e01b600052601160045260246000fd5b818103818111156102f1576102f1610afd565b600181811c90821680610b3a57607f821691505b602082108103610b5a57634e487b7160e01b600052602260045260246000fd5b50919050565b6020808252818101527f4f776e61626c653a2063616c6c6572206973206e6f7420746865206f776e6572604082015260600190565b600060208284031215610ba757600080fd5b8151610add816109df565b634e487b7160e01b600052600160045260246000fd5b600060018201610bda57610bda610afd565b5060010190565b60008151610bf3818560208601610988565b9290920192915050565b600080845481600182811c915080831680610c1957607f831692505b60208084108203610c3857634e487b7160e01b86526022600452602486fd5b818015610c4c5760018114610c6157610c8e565b60ff1986168952841515850289019650610c8e565b60008b81526020902060005b86811015610c865781548b820152908501908301610c6d565b505084890196505b505050505050610c9e8185610be1565b95945050505050565b634e487b7160e01b600052601260045260246000fd5b600082610ccc57610ccc610ca7565b500490565b634e487b7160e01b600052604160045260246000fd5b600082610cf657610cf6610ca7565b500690565b808201808211156102f1576102f1610afd565b634e487b7160e01b600052603260045260246000fdfea26469706673582212206e157a17c7ea74b6b1dcf8364d82c8da7e96c254d5a7ce96e50d100218de197964736f6c6343000811003368747470733a2f2f6e7574686f7573652e6865726f6b756170702e636f6d2f6170692f746f6b656e2f",
  "immutableReferences": {},
  "source": "// SPDX-License-Identifier: MIT\n\npragma solidity ^0.8.0;\n\nimport \"@openzeppelin/contracts/access/Ownable.sol\";\nimport \"@openzeppelin/contracts/utils/Strings.sol\";\nimport \"./IFactoryERC721.sol\";\nimport \"./Squirrel.sol\";\n\ncontract SquirrelFactory is FactoryERC721, Ownable {\n    using Strings for string;\n\n    event Transfer(\n        address indexed from,\n        address indexed to,\n        uint256 indexed tokenId\n    );\n\n    address public proxyRegistryAddress;\n    address public nftAddress;\n    string public baseURI = \"https://nuthouse.herokuapp.com/api/token/\";\n\n    /*\n     * Enforce the existence of only 69 OpenSea squirrels.\n     */\n    uint256 SQUIRREL_SUPPLY = 69;\n\n    /*\n     * Three different options for minting Squirrels (basic, premium, and gold).\n     */\n    uint256 NUM_OPTIONS = 1;\n    uint256 SINGLE_SQUIRREL_OPTION = 0;\n    uint256 MULTIPLE_SQUIRREL_OPTION = 1;\n    // uint256 LOOTBOX_OPTION = 2;\n    uint256 NUM_SQUIRRELS_IN_MULTIPLE_SQUIRREL_OPTION = 4;\n\n    constructor(address _proxyRegistryAddress, address _nftAddress) {\n        proxyRegistryAddress = _proxyRegistryAddress;\n        nftAddress = _nftAddress;\n\n        fireTransferEvents(address(0), owner());\n    }\n\n    function name() override external pure returns (string memory) {\n        return \"Welcome to the Nuthouse\";\n    }\n\n    function symbol() override external pure returns (string memory) {\n        return \"NUT\";\n    }\n\n    function supportsFactoryInterface() override public pure returns (bool) {\n        return true;\n    }\n\n    function numOptions() override public view returns (uint256) {\n        return NUM_OPTIONS;\n    }\n\n    function transferOwnership(address newOwner) override public onlyOwner {\n        address _prevOwner = owner();\n        super.transferOwnership(newOwner);\n        fireTransferEvents(_prevOwner, newOwner);\n    }\n\n    function fireTransferEvents(address _from, address _to) private {\n        for (uint256 i = 0; i < NUM_OPTIONS; i++) {\n            emit Transfer(_from, _to, i);\n        }\n    }\n\n    function mint(uint256 _optionId, address _toAddress) override public {\n        // Must be sent from the owner proxy or owner.\n        ProxyRegistry proxyRegistry = ProxyRegistry(proxyRegistryAddress);\n        assert(\n            address(proxyRegistry.proxies(owner())) == _msgSender() ||\n                owner() == _msgSender() \n        );\n        require(canMint(_optionId));\n\n        Squirrel openSeaSquirrel = Squirrel(nftAddress);\n        if (_optionId == SINGLE_SQUIRREL_OPTION) {\n            openSeaSquirrel.mintTo(_toAddress);\n        } else if (_optionId == MULTIPLE_SQUIRREL_OPTION) {\n            for (\n                uint256 i = 0;\n                i < NUM_SQUIRRELS_IN_MULTIPLE_SQUIRREL_OPTION;\n                i++\n            ) {\n                openSeaSquirrel.mintTo(_toAddress);\n            }\n        } \n    }\n\n    function canMint(uint256 _optionId) override public view returns (bool) {\n        if (_optionId >= NUM_OPTIONS) {\n            return false;\n        }\n\n        Squirrel openSeaSquirrel = Squirrel(nftAddress);\n        uint256 squirrelSupply = openSeaSquirrel.totalSupply();\n        /* \n            Below you could create logic to select from various minting options\n            using the optionId flag.\n            For this basic example we will just use one per mint.\n        */ \n        uint256 numItemsAllocated = 1;\n        return squirrelSupply < (SQUIRREL_SUPPLY - numItemsAllocated);\n    }\n\n    function tokenURI(uint256 _optionId) override external view returns (string memory) {\n        return string(abi.encodePacked(baseURI, Strings.toString(_optionId)));\n    }\n\n    /**\n     * Hack to get things to work automatically on OpenSea.\n     * Use transferFrom so the frontend doesn't have to worry about different method names.\n     */\n    function transferFrom(\n        address,\n        address _to,\n        uint256 _tokenId\n    ) public {\n        mint(_tokenId, _to);\n    }\n\n    /**\n     * Hack to get things to work automatically on OpenSea.\n     * Use isApprovedForAll so the frontend doesn't have to worry about different method names.\n     */\n    function isApprovedForAll(address _owner, address _operator)\n        public\n        view\n        returns (bool)\n    {\n        if (owner() == _owner && _owner == _operator) {\n            return true;\n        }\n\n        ProxyRegistry proxyRegistry = ProxyRegistry(proxyRegistryAddress);\n        if (\n            owner() == _owner &&\n            address(proxyRegistry.proxies(_owner)) == _operator\n        ) {\n            return true;\n        }\n\n        return false;\n    }\n\n    /**\n     * Hack to get things to work automatically on OpenSea.\n     * Use isApprovedForAll so the frontend doesn't have to worry about different method names.\n     */\n    function ownerOf(uint256) public view returns (address _owner) {\n        return owner();\n    }\n}\n",
  "sourcePath": "/Users/cameronfaith/Documents/GitHub/nft-collection-pipeline/smart-contract/contracts/SquirrelFactory.sol",
  "compiler": {
    "name": "solc",
    "version": "0.8.17+commit.8df45f5f.Emscripten.clang"
  },
  "schemaVersion": "3.3.4",
  "updatedAt": "2022-10-07T15:17:39.124Z",
  "networkType": "ethereum",
  "devdoc": {
    "kind": "dev",
    "methods": {
      "canMint(uint256)": {
        "details": "Returns whether the option ID can be minted. Can return false if the developer wishes to restrict a total supply per option ID (or overall)."
      },
      "mint(uint256,address)": {
        "details": "Mints asset(s) in accordance to a specific address with a particular \"option\". This should be callable only by the contract owner or the owner's Wyvern Proxy (later universal login will solve this). Options should also be delineated 0 - (numOptions() - 1) for convenient indexing.",
        "params": {
          "_optionId": "the option id",
          "_toAddress": "address of the future owner of the asset(s)"
        }
      },
      "owner()": {
        "details": "Returns the address of the current owner."
      },
      "renounceOwnership()": {
        "details": "Leaves the contract without owner. It will not be possible to call `onlyOwner` functions anymore. Can only be called by the current owner. NOTE: Renouncing ownership will leave the contract without an owner, thereby removing any functionality that is only available to the owner."
      },
      "tokenURI(uint256)": {
        "details": "Returns a URL specifying some metadata about the option. This metadata can be of the same structure as the ERC721 metadata."
      },
      "transferOwnership(address)": {
        "details": "Transfers ownership of the contract to a new account (`newOwner`). Can only be called by the current owner."
      }
    },
    "version": 1
  },
  "userdoc": {
    "kind": "user",
    "methods": {
      "isApprovedForAll(address,address)": {
        "notice": "Hack to get things to work automatically on OpenSea. Use isApprovedForAll so the frontend doesn't have to worry about different method names."
      },
      "name()": {
        "notice": "Returns the name of this factory."
      },
      "numOptions()": {
        "notice": "Number of options the factory supports."
      },
      "ownerOf(uint256)": {
        "notice": "Hack to get things to work automatically on OpenSea. Use isApprovedForAll so the frontend doesn't have to worry about different method names."
      },
      "supportsFactoryInterface()": {
        "notice": "Indicates that this is a factory contract. Ideally would use EIP 165 supportsInterface()"
      },
      "symbol()": {
        "notice": "Returns the symbol for this factory."
      },
      "transferFrom(address,address,uint256)": {
        "notice": "Hack to get things to work automatically on OpenSea. Use transferFrom so the frontend doesn't have to worry about different method names."
      }
    },
    "version": 1
  }
}